:020000040800F2
:10000000F0CC0020C1010008351100088B02000867
:10001000311100087104000891260008000000005A
:10002000000000000000000000000000F1230008B4
:10003000A1090008000000001302000815250008AF
:10004000DB010008DB010008DB010008DB01000820
:10005000DB010008DB010008DB010008DB01000810
:10006000DB010008DB010008DB010008DB01000800
:10007000DB010008DB010008DB010008DB010008F0
:10008000DB010008DB010008DB010008DB010008E0
:10009000DB010008DB010008DB010008DB010008D0
:1000A000DB010008DB010008DB010008DB010008C0
:1000B000DB010008DB010008DB010008DB010008B0
:1000C000DB010008DB010008DB010008DB010008A0
:1000D000DB010008DB010008DB010008DB01000890
:1000E000DB010008DB010008DB010008DB01000880
:1000F000DB010008DB010008DB010008DB01000870
:10010000DB01000809150008DB010008DB0100081D
:10011000DB010008DB010008DB010008DB0100084F
:10012000DB010008DB010008DB01000841070008D3
:10013000DB010008DB010008DB010008DB0100082F
:10014000DB010008DB010008DB010008DB0100081F
:10015000DB010008DB010008DB010008DB0100080F
:10016000DB010008DB010008DB010008DB010008FF
:10017000DB010008DB010008DB010008DB010008EF
:10018000DB010008DB010008DB010008DB010008DF
:10019000DB010008DB010008DB010008DB010008CF
:1001A000DB010008DB010008DB010008DFF80CD0F0
:1001B00000F0FAF80048004723040008F0CC0020C3
:1001C0000648804706480047FEE7FEE7FEE7FEE7F1
:1001D000FEE7FEE7FEE7FEE7FEE7FEE7252500086F
:1001E000AD010008EFF3108072B6704780F31088FD
:1001F00070472B4A1368012B04D04FF001031360A2
:10020000284A1060284A116028484FF08051016048
:100210007047EFF3108272B62148016891B14FF038
:10022000000101601F48016829B1EFF3098121E94C
:10023000F00F006801601C4909680968B1E8F00F17
:1002400081F3098882F310884EF0040E7047164936
:10025000086014494FF00000086011494FF0010098
:10026000086013484FF47F01D0F8002041EA0201F2
:1002700001600E484FF0805101600E480068006830
:1002800080F3088861B662B67047EFF3098000B565
:1002900004F092FF5DF804EB4EF0040E704700008E
:1002A000640100205C0100206001002004ED00E0FA
:1002B00020ED00E008ED00E02DE9F05F05460020AC
:1002C00092469B4688460646814640241BE02846C7
:1002D00041464746224600F057F853465A46C01A50
:1002E000914110D311461846224600F03EF82D1ACF
:1002F00067EB01084F4622460120002100F035F847
:1003000017EB00094E41201EA4F10104DFDC484632
:1003100031462A464346BDE8F09F40EA01039B0769
:1003200003D009E008C9121F08C0042AFAD203E06A
:1003300011F8013B00F8013B521EF9D2704730B56D
:100340000B46014600202022012409E021FA02F593
:100350009D4205D303FA02F5491B04FA02F528442D
:10036000151EA2F10102F1DC30BD202A04DB203A87
:1003700000FA02F1002070479140C2F1200320FAF8
:1003800003F3194390407047202A04DB203A21FAF6
:1003900002F00021704721FA02F3D040C2F120029E
:1003A0009140084319467047064C074D06E0E06847
:1003B00040F0010394E8070098471034AC42F6D3AC
:1003C000FFF7F8FE98180308B818030870B58C18E2
:1003D00010F8015B15F0070301D110F8013B2A1159
:1003E00006D110F8012B03E010F8016B01F8016B46
:1003F0005B1EF9D12B0705D40023521E0DD401F842
:10040000013BFAE710F8013BCB1A921C03E013F80A
:10041000015B01F8015B521EF9D5A142D8D300203F
:1004200070BD10B5FFF7DEFE06F028F8002010BD05
:100430001CB50121402000F0C5FE4FF40070009073
:1004400001208DF8040000208DF8060002208DF8B0
:10045000070000208DF805006946044800F0BAFD49
:100460004FF40071014800F020FE1CBD001802404E
:1004700000BFFEE770B500254FF4803400E0641E35
:1004800024B1802001F014F80028F8D014B9032515
:10049000284670BD40F2FF5000F0C6FF2846F8E73E
:1004A0002DE9F041064600274848056801E0474825
:1004B000056805F045000028F9D005F0040030B1CA
:1004C0000327042000F0B0FF3846BDE8F08105F0B6
:1004D000010028B10127012000F0A6FF3846F4E70B
:1004E00000F0E0FFB04202D010273846EDE740F2BE
:1004F000FF5000F099FF002000F0FAFF0446344856
:10050000204008B93846E0E704F0004008B11C205C
:10051000DBE704F0804008B10920D6E704F0005082
:1005200008B10A20D1E704F0805008B10B20CCE7D5
:1005300004F0006008B10C20C7E704F0806008B147
:100540000D20C2E704F0807008B10E20BDE704F46E
:10055000000008B10F20B8E704F4800008B11020B3
:10056000B3E704F4001008B11120AEE704F48010E2
:1005700008B11220A9E704F4002008B11320A4E771
:1005800004F4802008B114209FE704F4003008B17F
:1005900015209AE704F4803008B1162095E704F49A
:1005A000004008B1172090E704F4804008B11820FB
:1005B0008BE704F4005008B1192086E704F0080026
:1005C00008B11A2081E738467FE70000342C01404B
:1005D00008E0FFFD70B500251048046801E00F48F1
:1005E000046804F045000028F9D004F0040028B1A4
:1005F0000325042000F018FF284670BD04F0010018
:1006000028B10125012000F00FFF2846F5E740F250
:10061000FF5000F009FF2846EFE70000342C0140AE
:1006200070B500250B48046801E00A48046804F02E
:1006300045000028F9D004F0040028B10325042067
:1006400000F0F2FE284670BD40F2FF5000F0ECFED4
:100650002846F8E7342C01402DE9F04106460F46C4
:100660004FF000082248056801E02148056805F0C0
:1006700045000028F9D005F0040038B14FF0030818
:10068000042000F0D1FE4046BDE8F08105F00100F5
:1006900030B14FF00108012000F0C6FE4046F3E7FC
:1006A00000F000FFB04203D04FF010084046EBE7E7
:1006B00040F2FF5000F0B8FE002000F019FF0446A1
:1006C00004F4604018B9200C38804046DCE704F49C
:1006D000005008B11320D7E704F4804008B110207F
:1006E000D2E704F4004008B10F20CDE74046CBE745
:1006F000342C014070B500264FF480350F48046853
:1007000002E06D1E0D48046804F0450008B9002D94
:10071000F7D115B104F0040028B10326042000F03D
:1007200083FE304670BD04F0400028B10026402012
:1007300000F07AFE3046F5E73046F3E7342C01400E
:1007400010B5FFF74FFD044601F0E0FB2046FFF730
:100750004DFD10BD0246094B9A4201D2084801E006
:100760000648103801F000531BB1064B0B40C36024
:1007700002E0044B0B4083607047000010640240AD
:10078000006002407D0F7D0F21B1026842F001023E
:10079000026003E0026822F001020260704700007C
:1007A000016821F001010160002101604160816068
:1007B000C1600161212141614A49884204D13D2142
:1007C000484A103A91608CE046491831884205D178
:1007D0004FF47461434A103A916082E041493031EC
:1007E000884205D14FF474113E4A103A916078E086
:1007F0003C494831884205D14FF07461394A103A7A
:1008000091606EE037496031884204D13649354AFB
:10081000103AD16065E033497831884204D13349D8
:10082000304A103AD1605CE02E499031884204D1C0
:100830002F492C4A103AD16053E02A49A831884206
:1008400005D14FF03D51274A103AD16049E029497E
:10085000884204D13D21274A083A116041E02549E8
:100860001831884205D14FF47461224A083A116068
:1008700037E020493031884205D14FF474111D4AC8
:10088000083A11602DE01B494831884205D14FF0EC
:100890007461184A083A116023E0164960318842B1
:1008A00004D11149134A121F11601AE0114978311D
:1008B000884204D10D490F4A121F116011E00D4901
:1008C0009031884204D10A490A4A121F116008E097
:1008D0000849A831884204D14FF03D51054A121F02
:1008E00011607047106002403D000020400F002062
:1008F00000003D201064024021B1026842F0200255
:10090000026003E0026822F020020260704710B526
:1009100001F080034BB122B1436943F0800343618E
:1009200003E0436923F08003436180290BD02AB19F
:10093000036801F01E042343036004E0036801F030
:100940001E04A343036010BD10B500220268134BC0
:100950001A40CC680B6823434C6923438C692343BA
:10096000CC6923430C6A23434C6A23438C6A234398
:100970004C6B23438C6B23431A430260426922F081
:100980000702D1E90B3423431A4342610B694360E8
:100990004B6883608B68C36010BD00003F801CF013
:1009A0007047000000B587B00121084600F00AFC3E
:1009B0000121102000F016FC07220A211D4800F03A
:1009C00051FB072209211B4800F04CFB00208DF849
:1009D0001A0001208DF81B0002208DF8180000027B
:1009E000059002208DF8190005A9124800F0F2FACE
:1009F00002208DF818004002059005A90D4800F06E
:100A0000E9FA4FF4E13001900020ADF80800ADF8AC
:100A10000A00ADF80C00ADF810000C20ADF80E0087
:100A200001A9054801F0C6FD0121034801F0A8FD18
:100A300007B000BD000002400010014010B50024C6
:100A40002046FFF7D3FBFFF7F3FC012220A121484A
:100A500003F084F820490870084600780D2823D157
:100A60001EA001F017FE0022114619A002F034FD6D
:100A7000194908700846007888B923A001F00AFED9
:100A8000012213A1002003F069F813490870012224
:100A90000FA1104803F062F80F49087014E022A07B
:100AA00001F0F8FD00BFFEE70B48007848B10A48A6
:100AB000017823A001F0EEFD2AA001F0EBFD00BFBC
:100AC000FEE731A001F0E6FDFFF78CFB10BD000052
:100AD000303A00003C02002040000020A1B75344FF
:100AE000BFA8BBB9C3BBD3D0CEC4BCFECFB5CDB3BA
:100AF000A3ACBCB4BDABBDF8D0D0B8F1CABDBBAFE0
:100B00002E2E2E0D0A000000A1B75344BFA8D2D14B
:100B1000B3C9B9A6B8F1CABDBBAFCEC4BCFECFB590
:100B2000CDB3A1A30D0A0000A1B6A1B6B8F1CABD0C
:100B3000BBAFCAA7B0DCA1A3A1B7A1B70D0A000043
:100B4000A3A1A3A15344BFA8B9D2D4D8CEC4BCFE9C
:100B5000CFB5CDB3CAA7B0DCA1A3282564290D0A5F
:100B600000000000A3A1A3A1BFC9C4DCD4ADD2F290
:100B7000A3BA5344BFA8B3F5CABCBBAFB2BBB3C999
:100B8000B9A6A1A30D0A0000A1B7CEC4BCFECFB583
:100B9000CDB3B9D2D4D8B3C9B9A6A3ACBFC9D2D446
:100BA000BDF8D0D0B6C1D0B4B2E2CAD40D0A0000AC
:100BB00010B533A004F014FC0A223CA1414802F015
:100BC000FBFF4149087008460078002820D13FA06B
:100BD00004F006FC4D4B44224D493A4803F0EBF932
:100BE000394908700846007848B94848016849A062
:100BF00004F0F6FB464950A004F0F2FB04E0324852
:100C0000017855A004F0ECFB2E4802F054FC02E001
:100C100057A004F0E5FB5DA004F0E2FB012223A154
:100C2000284802F0C9FF28490870084600780028C3
:100C300021D160A004F0D4FB344B4FF480626249B0
:100C4000204803F078F8204908700846007848B931
:100C50002E4801685DA004F0C3FB5B4964A004F06A
:100C6000BFFB04E01848017869A004F0B9FB1548FF
:100C700002F021FC02E06CA004F0B2FB10BD000009
:100C80000D0A2A2A2A2A2A2A20BCB4BDABBDF8D0D4
:100C9000D0CEC4BCFED0B4C8EBB2E2CAD42E2E2E45
:100CA000202A2A2A2A2A2A0D0A000000303A466100
:100CB000744673B6C1D0B4B2E2CAD4CEC4BCFE2E60
:100CC000747874006C12002040000020A1B7B4F2C8
:100CD000BFAA2FB4B4BDA84661744673B6C1D0B4E0
:100CE000B2E2CAD4CEC4BCFE2E747874CEC4BCFEAC
:100CF000B3C9B9A6A3ACCFF2CEC4BCFED0B4C8EB86
:100D0000CAFDBEDDA1A30D0A0000000044000020C2
:100D100048000020A1B7CEC4BCFED0B4C8EBB3C914
:100D2000B9A6A3ACD0B4C8EBD7D6BDDACAFDBEDD38
:100D3000A3BA25640A000000A1B7CFF2CEC4BCFE5E
:100D4000D0B4C8EBB5C4CAFDBEDDCEAAA3BA0D0AA5
:100D500025730D0A00000000A3A1A3A1CEC4BCFE10
:100D6000D0B4C8EBCAA7B0DCA3BA282564290A000E
:100D7000A3A1A3A1B4F2BFAA2FB4B4BDA8CEC4BC92
:100D8000FECAA7B0DCA1A30D0A0000002A2A2A2A65
:100D90002A2A20BCB4BDABBDF8D0D0CEC4BCFEB6B0
:100DA000C1C8A1B2E2CAD42E2E2E202A2A2A2A2A6B
:100DB0002A0D0A00A1B7B4F2BFAACEC4BCFEB3C9C3
:100DC000B9A6A1A30D0A000090220020A1B7CEC4AD
:100DD000BCFEB6C1C8A1B3C9B9A62CB6C1B5BDD7B2
:100DE000D6BDDACAFDBEDDA3BA25640D0A00000037
:100DF000A1B7B6C1C8A1B5C3B5C4CEC4BCFECAFDB7
:100E0000BEDDCEAAA3BA0D0A2573200D0A0000008C
:100E1000A3A1A3A1CEC4BCFEB6C1C8A1CAA7B0DC21
:100E2000A3BA282564290A00A3A1A3A1B4F2BFAAEA
:100E3000CEC4BCFECAA7B0DCA1A30D0A000000000E
:100E40002DE9FC4107460D460026002400200090B5
:100E5000019008205B4908601020486040208860AD
:100E60000020C8604FF480600861084600F084FBF1
:100E70001020FFF715FB044614B12046BDE8FC81A5
:100E80005148008800044F490860372048604020DE
:100E900088600020C8604FF480600861084600F058
:100EA0006BFB3720FFF7FCFA04460CB12046E5E760
:100EB0004FF0FF30454908600820486030208860C6
:100EC0000220C8600020086101204861084600F047
:100ED000C3FA00203B490860332048604020886006
:100EE0000020C8604FF480600861084600F044FBB1
:100EF0003320FFF7D5FA04460CB12046BEE709E0DF
:100F00004FF4001000F0D4FA20B100F02FFB4DF8A0
:100F10002600761C2E48006840F22A61084000280E
:100F2000EED0082000F0C4FA28B1082000F07CFAC6
:100F300004242046A2E7022000F0BAFA28B10220D9
:100F400000F072FA0224204698E7202000F0B0FA60
:100F500028B1202000F068FA062420468EE74FF4DE
:100F6000007000F0A5FA30B14FF4007000F05CFAA8
:100F70000724204682E740F2FF5000F055FA00981F
:100F80000006009901F47F4140EA0120009901F434
:100F90007F0140EA1120009940EA116068600198E1
:100FA0000006019901F47F4140EA0120019901F412
:100FB0007F0140EA1120019940EA11602860204633
:100FC0005CE70000100200202C000020240200201A
:100FD000342C0140F0B50A4600210023002400BF54
:100FE0003DE0012505FA01F3156805EA03049C427A
:100FF00034D105684F000326BE40B543056015791E
:101000004E00B5400668354305601579012D02D0C4
:101010001579022D16D185684F000326BE40B543D1
:10102000856055794E00B5408668354385604568D2
:1010300001268E40B5434560456896798E40B6B22C
:1010400035434560C5684F000326BE40B543C560C3
:10105000D5794E00B540C6683543C560491C102996
:10106000BFD3F0BDF0B5002300244D07ED0E02FA0A
:1010700005F3CE1000F1200555F826504E07F70E67
:101080000F26BE40B543CF1000F1200646F827508A
:10109000CE1000F1200555F8265045EA0304CE1085
:1010A00000F1200545F82640F0BD4183704700005F
:1010B0001CB50121882000F085F84FF48060009075
:1010C00001208DF8040000208DF8060001208DF825
:1010D000070000208DF8050069461348FFF77AFFE6
:1010E0004FF40060009069460F48FFF773FF4FF41C
:1010F0008050009069460C48FFF76CFF4FF4006089
:10110000009069460948FFF765FF4FF48060064983
:1011100018310880400008804000088041100348D2
:10112000FFF7C3FF1CBD0000001C0240000C024082
:1011300000BFFEE77047000070B5002100230F22BA
:10114000C4781CB3174C246804F4E064C4F5E0646C
:10115000C4F30721C1F10404E3B20A4144789C407E
:10116000E1B28478144021430C07210E0E4C05781F
:101170006155047804F01F050124AC4005786D1119
:10118000AD0005F1E025C5F8004109E0047804F060
:101190001F050124AC40054D0678761145F8264020
:1011A00070BD00000CED00E000E400E080E100E034
:1011B00002490143024A1160704700000000FA052D
:1011C0000CED00E029B1064A12680243044B1A6094
:1011D00004E0034A12688243014B1A607047000022
:1011E0003038024029B1064A12680243044B1A60A3
:1011F00004E0034A12688243014B1A607047000002
:101200004438024029B1064A12680243044B1A606E
:1012100004E0034A12688243014B1A6070470000E1
:1012200024380240F0B500210022002402250026C7
:101230000223324F3F6807F00C0121B1042905D089
:10124000082937D105E02E4F076036E02D4F0760A3
:1012500033E02A4F3F1F3F68C7F38056274F3F1F99
:101260003F6807F03F036EB1264FB7FBF3F7DFF897
:101270008CC0ACF1040CDCF800C0CCF3881C07FB7C
:101280000CF40CE01E4FB7FBF3F7DFF870C0ACF1C5
:10129000040CDCF800C0CCF3881C07FB0CF4174FDF
:1012A0003F1F3F68C7F301477F1C7D00B4FBF5F784
:1012B000076002E0124F076000BF00BF0F4F3F689A
:1012C00007F0F0010909104F7A5C0768D7404760C2
:1012D0000A4F3F6807F4E051890A0B4F7A5C476870
:1012E000D7408760054F3F6807F46041490B064FC0
:1012F0007A5C4768D740C760F0BD000008380240FC
:101300000024F40040787D01140000207CB50546DF
:10131000002400200090019000F0EAF800F0007036
:1013200010B10E2420467CBD3D49098888B269462B
:10133000FFF786FD04460CB12046F4E7012D36D1B7
:10134000019800F4802000282ED035480088000441
:101350003449086037204860402088600020C86019
:10136000A8020861084600F007F93720FFF798F84F
:1013700004460CB12046D6E702202A490860062020
:101380004860402088600020C8604FF48060086199
:10139000084600F0F1F80620FFF782F804460CB189
:1013A0002046C0E72046BEE725242046BBE701983B
:1013B00000F4803078B31A480088000419490860A6
:1013C00037204860402088600020C8604FF480606B
:1013D0000861084600F0D0F83720FFF761F80446AE
:1013E0000CB120469FE700200E49086006204860A7
:1013F000402088600020C8604FF480600861084683
:1014000000F0BAF80620FFF74BF804460CB120466E
:1014100089E7204687E7FFE72524204683E7000089
:101420002C000020100200200149086070470000D5
:10143000382C01400149086070470000382C0140F9
:101440000149086070470000A080254201490860FA
:10145000704700008C85254200210B4B02681A6002
:101460001B1D42681A601A1D116821F0F701D0E9AE
:1014700002231A4303691A4343691A431143024A78
:101480000832116070470000242C014010B5012182
:10149000C802FFF7B7FE00214FF40060FFF7B2FE6D
:1014A00010BD000001480068C0B27047102C014018
:1014B00001460020034A12680A400AB1012000E0F8
:1014C00000207047342C014001460020034A126876
:1014D0000A400AB1012000E000207047342C01408E
:1014E0000248006800F0030070470000002C014033
:1014F00008B501460020009002480844009000987A
:10150000006808BD142C014010B5FEF76BFE0446C0
:1015100000F010FD2046FEF769FE10BD29B1064A15
:1015200012680243044B1A6004E0034A12688243C3
:10153000014B1A60704700003C2C014000210A4A10
:10154000116847F6FF629143027D83681A4343683E
:101550001A43C3681A4303681A4303691A431143C1
:10156000014A116070470000042C014001480068E6
:1015700070470000802C01400021094B02681A606E
:101580001A1D11686FF30A01D0E901231A43C368D9
:101590001A4303691A431143014A121D116070472F
:1015A000082C01400149086070470000002C0140F0
:1015B00008B5012000909DF8000008BD70B50446F4
:1015C000002520480068032802D12725284670BD41
:1015D0001C48006838B11B480068012803D019482E
:1015E000006802282CD1B4F5805F02D12725284657
:1015F000EDE7B4F5006F13D10120FFF787FE054634
:10160000F5B90020104908750860486088604FF4FB
:101610000060C860002008610846FFF78FFF0FE0F8
:101620000020FFF773FE054655B9002006490875EE
:10163000086048608860C86008610846FFF77EFF60
:101640002846C4E728000020F8010020F0B5014634
:1016500000200022C04B1B7881F85630BF4B1B88FE
:10166000A1F85430BE4B1B681A0E93090B70C2F3DD
:1016700083034B7002F003038B70B94B1B68C3F3F9
:101680000742CA70B64B1B88C3F307220A71B44BDA
:101690001A784A715B681A0E1301CB80B04B5B68F5
:1016A000C3F30742CB8843EA1213CB8002F00F0347
:1016B0000B72AB4B9B88C3F30722D3094B72C2F367
:1016C00080138B72C2F34013CB72C2F300130B73FF
:1016D00000234B73A04B1B681BB19F4B1B68012B56
:1016E0004FD193071B0D0B619D4B1A790B6943EA90
:1016F00082030B619A4B9B681A0E0B6943EA9213A3
:101700000B61C2F3C2030B7502F007034B75944BD8
:101710009B68C3F3074253098B75C2F38203CB75F1
:1017200093075B0F0B768E4B1B89C3F307220B7E4F
:1017300043EAD2130B760B695B1C0024C1E9123417
:101740000B7ED1E912469B1C012505FA03F3DF1736
:10175000A4FB035C06FB03C304FB0733C1E912537C
:101760000C7A0123A3400B650027D1E912560B6DBB
:10177000A5FB034C06FB03C305FB0733C1E912437A
:1017800036E0754B1B68022B32D1754B1A799306E4
:101790009B0A0B61724B9B681A0E0B6943EA02238A
:1017A0000B616F4B9B68C3F307420B6913430B61DB
:1017B0006B4B1B89C3F307220B6900245B1C44EBB2
:1017C00004074FF400760025A3FB064C07FB06C672
:1017D00003FB05664FF480650027A4FB053C06FB70
:1017E00005C504FB0754C1E912344FF400730B65BF
:1017F000C2F3801301F8193F93065B0E4B70584BF0
:101800001A7A4B7843EAD2134B7002F07F038B7045
:10181000534BDB681A0ED309CB70C2F341130B7123
:10182000C2F382034B7193071B0F8B714C4BDB6828
:10183000C3F307428B7943EA92138B71C2F34013CF
:10184000CB7100230B7202F001034B72444B9B8956
:10185000C3F30722D3098B72C2F38013CB72C2F396
:1018600040130B73C2F300134B73C2F381038B73EA
:1018700002F00303CB733A4B1A7B53080B7401231A
:101880004B74384B1B681A0ECA741939354B1B68D8
:10189000C3F307421402CC85324B1B88C3F30722E3
:1018A000CB8D1343CB852F4B1A7814060C635B68E2
:1018B0001A0E0B6B43EA02440C632A4B5B68C3F3BA
:1018C00007420B6B43EA02240C63264B9B88C3F34D
:1018D00007220B6B13430B63224B1A7934235A54A0
:1018E000204B9B681A0E35235A541E4B9B68C3F33A
:1018F000074214068C631B4B1B89C3F307228B6BB7
:1019000043EA02448C63174B1A7A8B6B43EA022436
:101910008C63144BDB681A0E8B6B13438B63114B78
:10192000DB68C3F307423C235B5C43EA12143C23AD
:101930005C5413071C0DCC870A4B9B89C3F3072209
:10194000CB8F1343CB87074B1A7B540840235C543F
:10195000012441235C54F0BD280000202C0000200D
:10196000700100208001002008B500200090FFF7E2
:101970001FFE012809D1684600F0CAFB08B1FF200C
:1019800008BD0098C0F34320FAE7FF20F8E710B540
:101990000424FFF7E9FF0446042C01D1002010BD08
:1019A000FF2C01D10220FAE70120F8E71CB5002046
:1019B00001904FF44070FFF7FBFB31208DF80000E1
:1019C00001208DF8010000208DF8020001208DF823
:1019D00003006846FFF7B0FB3B208DF800000120B4
:1019E0008DF801006846FFF7A7FB00F06DF9FFF7DF
:1019F0004DFD00F0BBF901909DF8040010B19DF879
:101A000004001CBD00F032F801909DF8040010B1F4
:101A10009DF80400F5E70020124908750860486049
:101A20008860C86008610846FFF788FD0E48FFF728
:101A30000DFE01909DF8040040B90B48B0F8540029
:101A400002041046002100F047FB01909DF80400BD
:101A500020B94FF40060FFF7B1FD01909DF804003C
:101A6000CFE70000F8010020A001002038B50024D5
:101A700001200090FFF734FD10B92524204638BD21
:101A800044480068042828D0002043490860022008
:101A90004860C02088600020C8604FF48060086102
:101AA0000846FFF769FDFEF795FD04460CB1204698
:101AB000E5E70020FFF71CFD384908600420FFF728
:101AC00017FD364948600820FFF712FD334988604A
:101AD0000C20FFF70DFD3149C8602E48006858B151
:101AE0002C480068012807D02A480068062803D03F
:101AF00028480068022816D10020274908600320E2
:101B00004860402088600020C8604FF48060086111
:101B10000846FFF731FD69460320FEF79DFD0446A8
:101B20000CB12046ABE71B48006804282ED0BDF856
:101B300000001B490860BDF8000000041649086059
:101B400009204860C02088600020C8604FF4806091
:101B500008610846FFF710FDFEF73CFD04460CB196
:101B600020468CE70020FFF7C3FC0E4908600420E4
:101B7000FFF7BEFC0B4948600820FFF7B9FC094994
:101B800088600C20FFF7B4FC0649C860002420469A
:101B900075E70000280000201002002080010020CE
:101BA0002C0000207001002030B58FB004460D4697
:101BB0004FF0FA511E48FEF7CDFD00211C48FEF7FC
:101BC000E3FD1B48FEF7ECFD4FF000600090194864
:101BD00001900294002003900120049000200590C1
:101BE0004FF48060069080000790800008900020ED
:101BF00009904FF440300A9004200B9003200C9081
:101C00004FF400000D9080100E9069460848FEF7D2
:101C10009BFE012210210648FEF779FE2021044890
:101C2000FEF76AFE01210248FEF7AEFD0FB030BD9F
:101C300058640240802C014030B58FB004460D46F8
:101C40004FF0FA511E48FEF785FD00211C48FEF7B3
:101C50009BFD1B48FEF7A4FD4FF000600090194863
:101C600001900294402003900120049000200590F0
:101C70004FF480600690800007908000089000205C
:101C800009904FF440300A9004200B9003200C90F0
:101C90004FF400000D9080100E9069460848FEF742
:101CA00053FE012210210648FEF731FE2021044890
:101CB000FEF722FE01210248FEF766FD0FB030BD9F
:101CC00058640240802C01401CB501210C20FFF714
:101CD00079FA0C2208212348FFF7C4F90C220921C4
:101CE0002048FFF7BFF90C220A211E48FFF7BAF976
:101CF0000C220B211B48FFF7B5F90C22114619489D
:101D0000FFF7B0F90C2202211748FFF7ABF94FF4A7
:101D10007060009002208DF805008DF8040000200E
:101D20008DF8060001208DF8070069460D48FFF781
:101D300051F90420009069460B48FFF74BF94FF426
:101D40008050009000208DF8070069460548FFF795
:101D500041F90121C802FFF745FA01218805FFF783
:101D600031FA1CBD00080240000C0240F8B500200A
:101D70000090002500240026002776205F49087582
:101D80000020086048608860C86008610846FFF766
:101D9000D5FB0320FFF706FC0120FFF751FB0020D5
:101DA0005749086048608860C8604FF480600861E7
:101DB0000846FFF7E1FBFEF75DFB00909DF8000091
:101DC00010B19DF80000F8BD4FF4D5704C49086083
:101DD00008204860402088600020C8604FF4806080
:101DE00008610846FFF7C8FBFEF784FC00909DF8E9
:101DF000000020B9012043490860870712E0002055
:101E00003F49086037204860402088600020C86053
:101E10004FF4806008610846FFF7AEFB3720FEF7FD
:101E20003FFB009000203649086037204860402082
:101E300088600020C8604FF4806008610846FFF7A2
:101E40009BFB3720FEF72CFB00909DF8000000283C
:101E500051D13BE000202A490860372048604020EB
:101E600088600020C8604FF4806008610846FFF772
:101E700083FB3720FEF714FB00909DF8000010B1A3
:101E80009DF800009FE7204838431D49086029203D
:101E90004860402088600020C8604FF4806008617E
:101EA0000846FFF769FBFEF7BBFB00909DF80000BA
:101EB00010B19DF8000086E70020FFF719FB0546EA
:101EC000012080EAD57080F00106641C1EB94FF62F
:101ED000FF708442BED34FF6FF70844204D31B20B0
:101EE00000909DF800006EE705F08040051E02D0CE
:101EF0000220044908609DF8000064E7F801002012
:101F000010020020280000200000108010B50748B3
:101F1000006800F0C05040B10120054908604FF052
:101F2000C25102485830FEF715FC10BD0064024053
:101F30003C00002010B54FF48070FFF7C5FA50B197
:101F40000020254908704FF48070FFF773FA0120D4
:101F50002249086037E00220FFF7B6FA30B10220CC
:101F6000FFF768FA02201C4908702CE00820FFF7F0
:101F7000ABFA30B10820FFF75DFA0420164908706B
:101F800021E02020FFF7A0FA30B12020FFF752FA1D
:101F900006201149087016E01020FFF795FA30B1BD
:101FA0001020FFF747FA05200B4908700BE04FF4AB
:101FB0000070FFF789FA30B14FF40070FFF73AFA7A
:101FC00007200549087000214CF23A30FFF7A6FAC5
:101FD0000148007810BD00003400002038000020C7
:101FE0002DE9F047814614461D46DDE908680027C3
:101FF00000203249087032490860012031490860E8
:10200000002031490860012140F22A30FFF786FAAA
:1020100008FB06F14846FFF7C7FD0120FFF716FA57
:102020002A480068022808D106020202002320463E
:102030002946FEF741F904460D4625480660102062
:1020400023494860402088600020C8604FF48060C9
:1020500008610846FFF790FA1020FEF721FA0746BC
:1020600017B13846BDE8F0874FF0FF3019490860D6
:1020700008FB06F04860902088600220C8600020BD
:102080000861012048610846FFF7E6F9104804603E
:1020900012200F494860402088600020C8604FF43B
:1020A000806008610846FFF767FA1220FEF7F8F92A
:1020B00007460FB13846D5E73846D3E7340000204D
:1020C00038000020300000202C2C01402800002087
:1020D000100200202402002070B504460D460026A0
:1020E0000A480460072009494860402088600020B1
:1020F000C8604FF4806008610846FFF73DFA07208A
:10210000FEF7CEF90646304670BD000010020020F2
:1021100070B50446002514B92625284670BD0F4821
:10212000008800040E4908600D2048604020886047
:102130000020C8604FF4806008610846FFF71CFA71
:102140000D20FEF7ADF905460DB12846E6E7002063
:10215000FFF7CEF920602846E0E700002C000020C1
:102160001002002010B5002400200A4908600C204D
:102170004860402088600020C8604FF4806008619B
:102180000846FFF7F9F90C20FEF78AF904462046C5
:1021900010BD00001002002070B500256C1E00E08C
:1021A000641E1848006838B91748006820B91748F5
:1021B000007808B9002CF3D1002012490860441EB1
:1021C00000E0641E1248006800F4005008B1002CC2
:1021D000F7D110480068012805D1FFF7C3FF054675
:1021E00000200C4908600CB905B9042540F2FF50E5
:1021F000FFF71AF90548007810B10448007870BD5F
:102200002846FCE73C000020380000203400002075
:10221000342C01403000002070B500256C1E00E019
:10222000641E1848006838B91748006820B9174874
:10223000007808B9002CF3D1002012490860441E30
:1022400000E0641E1248006800F4805008B1002CC1
:10225000F7D110480068012805D1FFF783FF054634
:1022600000200C4908600CB905B9042540F2FF5064
:10227000FFF7DAF80548007810B10448007870BD1F
:102280002846FCE73C0000203800002034000020F5
:10229000342C0140300000202DE9F04781461546DE
:1022A0001E46DDE9087800240020494908704949A4
:1022B0000860012048490860002048490860012161
:1022C00040F21A30FFF72AF908FB07F14846FFF7FA
:1022D000B3FC0120FFF7BAF841480068022808D192
:1022E00007020202002328463146FDF7E5FF0546B6
:1022F0000E463C48076010203A49486040208860FC
:102300000020C8604FF4806008610846FFF734F988
:102310001020FEF7C5F8044614B12046BDE8F0874A
:102320003148008800042F49086037204860402069
:1023300088600020C8604FF4806008610846FFF79D
:102340001BF93720FEF7ACF804460CB12046E5E750
:102350002448C0F800801720224948604020886047
:102360000020C8604FF4806008610846FFF704F958
:102370001720FEF795F804460CB12046CEE7194821
:102380000560192017494860402088600020C86017
:102390004FF4806008610846FFF7EEF81920FEF759
:1023A0007FF804460CB12046B8E74FF0FF300F49E4
:1023B000086008FB07F04860902088600020C86033
:1023C0000861012048610846FFF746F82046A5E766
:1023D0003400002038000020300000202C2C014068
:1023E00028000020100200202C00002024020020E1
:1023F000704700000CB50020019000904148006833
:1024000040F480303F49086000BF3E48006800F457
:10241000003000900198401C0190009818B9019874
:10242000B0F5A04FF1D13748006800F4003010B18A
:102430000120009001E0002000900098012860D168
:1024400030484030006840F080502E4940310860EC
:102450002D48006840F440402B4908602948083066
:1024600000682849083108600846006840F40040C8
:1024700008600846006840F4A05008602348091F1F
:102480000860081F006840F08070091F086000BFE6
:102490001C48006800F000700028F9D01A48006855
:1024A00040F480301849086000BF1748406800F4C5
:1024B00080300028F9D01448006840F400301249F8
:1024C000086000BF1048406800F400300028F9D0D0
:1024D00040F205700E4908600A480830006820F094
:1024E00003000849083108600846006840F002000F
:1024F000086000BF03480830006800F00C0008289E
:10250000F8D10CBD0038024000700040195A400755
:10251000003C024010B502F0FBFE03F0E5FC02F0C7
:1025200007FF10BD10B51248006840F001001049C7
:10253000086000200E49083108600D4800680D4908
:1025400008400B4908600C48091D0860081F006816
:1025500020F48020091F0860002005490C31086024
:10256000FFF748FF4FF000600449086010BD00000D
:1025700000380240FFFFF6FE1030002408ED00E0B6
:1025800021B1828942F40052828104E082894DF6B1
:10259000FF731A408281704702460020B1F5007F28
:1025A00000D100BF13880B400BB1012000E00020D8
:1025B000704700002DE9FF4705460E460024A1465E
:1025C00000BFA046B08900B100BF2C8A24F440545B
:1025D000F08804432C82AC8941F20C608443B088BB
:1025E00031890843718908430443AC81AC8A24F4DF
:1025F0004074B0890443AC826846FEF713FE20485D
:10260000854202D01F48854202D1DDF80C9001E0DE
:10261000DDF80890A88900F4004040B109EBC9003A
:1026200000EB091031684900B0FBF1F707E009EB56
:10263000C90000EB091031688900B0FBF1F7642094
:10264000B7FBF0F004012009642101FB1078A88990
:1026500000F4004040B1322000EBC800B0FBF1F0C4
:1026600000F00700044308E0322000EB081064216A
:10267000B0FBF1F000F00F0004432C81BDE8FF87B0
:102680000010014000140140C1F30802828070472D
:1026900000BFFEE70FB4054B10B503A9044A02982A
:1026A00000F048F810BC5DF814FB000085470008F6
:1026B0006C010020014609B900207047C8B220B162
:1026C000C8B20E4A105C401CF7E701F47F4028B105
:1026D0000A48C1F30722805C0930EEE701F47F006D
:1026E00028B10648C1F30742805C1130E5E7034892
:1026F00000EB116000781930DFE700006417030871
:1027000002E008C8121F08C1002AFAD170477047BA
:10271000002001E001C1121F002AFBD17047000018
:1027200003490868884201D0012070470020FCE777
:10273000480100202DE9FF4F89B09B460446002543
:1027400006E025280BD05A460B999047641C6D1C57
:1027500020780028F5D10DB02846BDE8F08F00277D
:10276000B8460122474900E0074314F8013F203BE7
:1027700002FA03F00842F7D120782E2819D114F874
:10278000010F47F004072A280ED06FF02F0220789F
:10279000A0F1300109290CD808EB880102EB4101B6
:1027A00000EB0108641CF2E70A98641C50F8048BE3
:1027B0000A9020780028CED0642808D0692806D056
:1027C00075281ED05A460B9990476D1C58E00A99FF
:1027D0004FF00A0901C90A91002802DA40422D216E
:1027E00002E0390504D52B218DF82010012103E0EA
:1027F000F90704D02021F7E78A4608AE0DE0002152
:10280000FAE70A994FF00A0901C90A91F7E7494620
:10281000FDF795FD303106F8011D0028F7D1ADEB2D
:10282000060000F12009780701D44FF00108C845DF
:1028300002DDA8EB090000E000208046002706E04A
:1028400008A85A46C05D0B9990476D1C7F1C5745E0
:10285000F6DB04E030205A460B9990476D1CB8F126
:102860000001A8F10108F5DC05E016F8010B5A4655
:102870000B9990476D1CB9F10001A9F10109F4DC35
:10288000641C65E7092801002DE9FC5F04468B46BE
:1028900015461E46DDE90C9ADDE90E7804F11400B8
:1028A0004060006000BF1C346560A660C4F80C90F6
:1028B000C4F810A02321D4E9030202F0A7FED4E952
:1028C000033C63441A1F0F4BD4E9010102F0FAFCE8
:1028D0002060A77667760020E061C4F82880C4F8FD
:1028E0002C8060612076E06520661C3C00902346C9
:1028F000054A2146019004F14C0003F077FB0020CB
:10290000BDE8FC9F0D5C0008595E00082DE9F0470A
:1029100004460E4617469846DDF8209084F8099044
:10292000607A20F001006072E66127620020A062F8
:10293000C4F82480002506E004F1140101EBC50071
:1029400002F06CFD6D1C012DF6DBBDE8F08710B5C3
:102950000246002001460EE002F1140303EBC10021
:10296000D0E900436360D0E9003423604060006038
:1029700000BF481C01460129EEDB10BD70B50446BE
:102980000D4600202071401EE0622946204602F0DC
:10299000BCF808B1032070BD94F82E1294F82F02F1
:1029A00041EA00204AF65521884201D00220F2E790
:1029B00094F86900010694F8680041EA004194F82F
:1029C000670041EA002094F86610084320F07F4039
:1029D0000D49884201D10020DDE794F88500010609
:1029E00094F8840041EA004194F8830041EA002011
:1029F00094F88210084320F07F400349884201D1B7
:102A00000020C8E70120C6E746415400024600E026
:102A1000521C107810B110788842F9D110787047A4
:102A20000246891E5069801E884201D800207047E6
:102A30009378906A01FB0300F9E700002DE9F04765
:102A400080460C46A17EE07E41EA002010B10020C5
:102A5000BDE8F087207800F03F00401E00EB8001C9
:102A600001EBC0064FF00109002524E01A48405D43
:102A7000205C1949495D2144497840EA0127B9F1B0
:102A8000000F11D0FF2E0BD2384601F0D9FB824641
:102A90003146761C38F8110001F0D2FB824501D096
:102AA0000020D5E7B94605E04FF6FF70874201D018
:102AB0000020CDE76D1C0D2DD8D3207800F040000C
:102AC00038B1B9F1000F04D038F8160008B1002071
:102AD000BEE70120BCE700006A6600082DE9F04768
:102AE00004468946B9F1000F06D1E76817B160695D
:102AF000B84215D8012713E04946204601F0BAFE36
:102B00000646022E02D20120BDE8F087701C08B9EB
:102B10003046F9E76069B04201D93046F4E74F46E4
:102B20003D4600BF6D1C6069A84204D80225BD4225
:102B300001D90020E8E72946204601F09BFE064621
:102B400006B909E0701C08B1012E01D13046DBE75F
:102B5000BD42E7D10020D7E700BF6FF070422946A1
:102B6000204602F0EFF88046B8F1000F08D1B9F125
:102B7000000F05D02A464946204602F0E3F8804679
:102B8000B8F1000F0BD1E5602069401C78B12069D5
:102B9000401E2061607940F00100607107E0B8F1EB
:102BA000010F02D14FF0FF3000E00120054628461A
:102BB000AAE700002DE9F34F83B08146049800682E
:102BC000019002E00198401C0190019800782F28A4
:102BD000F8D0019800785C28F4D0D9F81CA0002522
:102BE0002F4600BF38467F1C01990C5C202C03DB6C
:102BF0002F2C01D05C2C00D132E0FF2D03D3062016
:102C000005B0BDE8F08FE4B2812C13DBE0B2FE2802
:102C100010DC38467F1C01990E5C06EB042084B260
:102C2000402E01DB7E2E05DD802E01DBFE2E01DD38
:102C30000620E5E70121204601F0C4FA04460CB95C
:102C40000620DDE7802C06DA214671A0FFF7DEFEC4
:102C500008B10620D4E728466D1C2AF81040C1E7C9
:102C600000BF0198C11904980160202C01DA0420EA
:102C700000E00020804608E0681E3AF81040202C52
:102C800002D02E2C00D002E06D1E002DF4D100BF2A
:102C90000DB90620B4E700202AF815000B222021E8
:102CA000D9F8180001F027FF002700E07F1C3AF850
:102CB00017002028FAD03AF817002E28F6D00FB1C6
:102CC00048F0030800E06D1E25B1681E3AF81000B8
:102CD0002E28F8D10020064602904FF0080B00BFC6
:102CE00038467F1C3AF8104004B963E0202C03D02A
:102CF0002E2C04D1AF4202D048F00308F0E702982E
:102D0000584501D2AF4214D1BBF10B0F02D148F0AC
:102D100003084FE0AF4201D048F00308AF4200D9AA
:102D200048E02F46082002904FF00B0BB006060E2D
:102D3000D6E7802C09DB204601F082FA00210090C2
:102D400001F040FA044648F00208FF2C11DDABF117
:102D500001000299884204D848F00308CDF808B071
:102D6000BEE72212D9F818300298411C02911A5479
:102D700019E024B1214629A0FFF748FE18B15F24CD
:102D800048F003080FE0412C04DB5A2C02DC46F02B
:102D9000020608E0612C06DB7A2C04DC46F0010612
:102DA000A4F1200084B2D9F818300298411C029195
:102DB0001C5495E700BFD9F818000078E52803D126
:102DC0000520D9F818100870BBF1080F01D1B00622
:102DD000060E06F00C000C2803D006F003000328B2
:102DE00001D148F0020808F0020058B906F00300CB
:102DF000012801D148F0100806F00C00042801D188
:102E000048F00808D9F8180080F80B800020F7E691
:102E1000222A3A3C3E3F7C7F000000002B2C3B3DA9
:102E20005B5D00002DE9F04104460E46002120467E
:102E300000F0CDF90546EDB9002700BF21692068F3
:102E400001F063FE054605B113E060690078E528EE
:102E500002D06069007820B9781C0746B04201D1E1
:102E600007E000270121204600F07FF80546002DED
:102E7000E4D000BF042D00D107252846BDE8F0812D
:102E80002DE9F04704460021204600F0A0F907464E
:102E900017B13846BDE8F0874FF0FF09CA464FF634
:102EA000FF70208400BF2169206801F02EFE0746D4
:102EB00007B157E065692E780EB9042752E0E87A29
:102EC00000F03F08E52E05D008F0080040B1B8F149
:102ED0000F0F05D04FF0FF094FF6FF7020843AE046
:102EE000B8F10F0F1CD1E06978B306F0400030B1A3
:102EF00095F80DA026F04006B146E08820844E45A6
:102F00000AD1687B504507D12946E069FFF796FD55
:102F100010B1A9F1010000E0FF2000F0FF091AE064
:102F2000B9F1000F05D1284603F0D8FA504500D179
:102F300018E0A069C07A00F0010038B90B222846D9
:102F4000A16901F0B8FD08B90CE004E04FF0FF09F9
:102F50004FF6FF7020840021204600F006F8074657
:102F6000002FA0D000BF384694E72DE9F041044679
:102F70008846E088461CB0B208B1206910B9042028
:102F8000BDE8F08121684889C11700EBD161491182
:102F9000B6FBF1F201FB1261002971D12069401CDE
:102FA0002061E06828B920680089B04268D8042010
:102FB000E6E721684889C11700EBD1614911B6FBEA
:102FC000F1F122689278521E1140002958D1E1682F
:102FD000206801F04FFC0546012D01D80220CFE703
:102FE000681C08B90120CBE720684069A84241D895
:102FF000B8F1000F01D10420C2E7E1682068FFF7B3
:103000006DFD05460DB90720BAE7012D01D102205B
:10301000B6E7681C08B90120B2E7206803F0D2FACD
:1030200008B10120ACE721684A8901F13000002194
:1030300001F061FD29462068FFF7F2FC2168C862B3
:1030400000270EE0012021680871206803F0BAFA19
:1030500008B1012094E72068C06A401C2168C8625A
:103060007F1C20688078B842ECD82068C06AC01BFA
:103070002168C862E56029462068FFF7D1FC20611D
:10308000E68021684889C11700EBD1614911B6FB80
:10309000F1F201FB12612268303202EB41116161F1
:1030A00000206DE72DE9FE4F0446D4F81880D4F8CF
:1030B0001C900C224146684601F010FD00BF9DF8AF
:1030C0000B0000F0010020B3002088F80B00E06145
:1030D00001260CE033464A466946404601F064FB4F
:1030E0002046FFF7CDFE054605B102E0761C642EB2
:1030F000F0D300BF642E02D10720BDE8FE8F042D5F
:1031000001D02846F9E79DF80B0088F80B00C4F8B9
:103110001C909DF80B0000F0020060B1002600E05A
:10312000761C39F816000028FAD106F119000D2195
:10313000B0FBF1F700E0012739462046FFF772FEA9
:10314000054645BB781E071E25D0E088C11B2046DA
:1031500000F03DF80546F5B9A06903F0BFF98246D5
:1031600000BF2169206801F0D0FC054605B111E0DF
:10317000FAB253466169E06901F07CFA01202168E6
:10318000087100212046FFF7F0FE054615B9781EAC
:10319000071EE6D100BFC5B92169206801F0B5FC62
:1031A000054695B920220021606901F0A4FC0B229C
:1031B000D4E9050101F092FCA069C07A00F0180082
:1031C00061690873012021680871284695E72DE997
:1031D000F04104460E46E680A568012D03D0206824
:1031E0004069A84202D80220BDE8F0812DB92068CC
:1031F0000078032801D12068456A45B92068008914
:10320000B04201D80220EFE72068476A24E0216835
:103210004889C11700EBD16149112268927811FBEE
:1032200002F812E02946206801F024FB0546681CDC
:1032300008B90120D8E7022D03D320684069A842CD
:1032400001D80220D0E7A6EB08064645EAD2294677
:103250002068FFF7E5FB0746E5600FB90220C3E7EA
:1032600021684889C11700EBD1614911B6FBF1F122
:103270003944216121684889C11700EBD1614911A6
:10328000B6FBF1F201FB12612268303202EB411110
:1032900061610020A8E770B50446012514B1012C36
:1032A00009D107E0FEF782FB10B925F0010500E027
:1032B000012502E001E0012500BF00BF284670BDE6
:1032C0002DE9F04705460E4614464FF0040915B1A6
:1032D000012D22D120E0D6B1012E0CD0022E02D039
:1032E000032E15D103E04FF40070208010E00E484B
:1032F000006D20600CE00C48D0F850C062460023FE
:10330000D0E912713846FCF7D7FF206000E000BF1B
:1033100000BF4FF0000903E002E04FF0040900BFD6
:1033200000BF4846BDE8F087A00100202DE9F04726
:10333000ADF5007D07460C4615461E464FF0040AC3
:103340004FF0000817B1012F44D142E004F0030010
:1033500000B34FF0000913E02A466D1C01236946B3
:103360000020FFF7E3FF8146B9F1000F00D00BE02A
:103370004FF4007269462046FCF7CFFF04F5007455
:10338000301EA6F10106E7D100BF48460DF5007DCD
:10339000BDE8F0874FF4007069020A460023CDE9CA
:1033A00000062046FEF71CFE8046B8F1000F07D14C
:1033B000FEF7F2FE804600BFFEF7E9FA0028FBD1D7
:1033C000B8F1000F02D04FF0040A01E04FF0000AFC
:1033D00003E002E04FF0040A00BF00BF5046D5E70B
:1033E0000146012011B1012904D102E020F00100C1
:1033F00002E001E0012000BF00BF70472DE9F04767
:10340000ADF5007D07460C4616461D464FF0040AF2
:103410004FF0000825B904200DF5007DBDE8F087C8
:1034200017B1012F41D13FE004F00300E8B14FF0A4
:10343000000913E04FF4007221466846FCF76DFF67
:103440003246761C012369460020FFF7D7FF8146EC
:10345000B9F1000F00D005E004F50074281EA5F1B5
:103460000105E7D100BF4846D6E74FF4007071026E
:103470000A460023CDE900052046FEF70DFF8046F1
:10348000B8F1000F07D1FEF7C7FE804600BFFEF778
:103490007EFA0028FBD1B8F1000F02D04FF0040AE9
:1034A00001E04FF0000A03E002E04FF0040A00BF21
:1034B00000BF5046B0E770B50546284600F023FD32
:1034C000044634B9284603F0B7F804460CB9002086
:1034D0002860204670BD00002DE9F74F90B091465E
:1034E0001198012803DD132013B0BDE8F08F10A858
:1034F00001F064FA0F900F98002801DA0B20F3E72F
:10350000FA490F9851F820500DB90C20ECE7002033
:1035100028700F98C0B20C9000200B900C98FFF709
:10352000BAFE0190019800F0010008B10320DBE72A
:10353000019800F0040008B10A20D5E705F10A025D
:1035400002210C98FFF7BCFE38B96889B0F5805F9E
:1035500003DC6889B0F5007F01DA0120C4E700BF11
:1035600004AA01210C98FFF7ABFE10B9049880283B
:1035700001D20120B8E7119808B1002000E03F20F7
:1035800082460498A0EB0A000490A9F1010000EA29
:10359000090008B14FF00009B9F1000F1AD168898C
:1035A000C11700EBD15149124FF4FA6292FBF1F1CD
:1035B000049AB2FBF1F10A914FF0000B01E00BF11C
:1035C000010BCB4830F81B100A988142F7D8C94844
:1035D00030F81B90B9F5007F02D36889B9FBF0F988
:1035E000B9F1000F01D14FF00109B9F1800F01D9F4
:1035F0004FF080090498B0FBF9F8012640F6F67008
:10360000804500D302264FF6F670804500D303268E
:10361000032E0CD1082000EB880069890844401E65
:10362000B0FBF1F7202003900020029019E0012E5A
:1036300005D108EB4800401C4008C01C02E04FEADE
:103640004800001D074668893844401E6989B0FB60
:10365000F1F70120039068894FF48041B1FBF0F04D
:1036600002900398504407900798384406900299B6
:1036700006980844059005984844A0EB0A00049970
:10368000884201D90E202FE709AA03210C98FFF7E1
:1036900017FE28B9099818B10998B0F5004F01D95B
:1036A00001200990099905980844401E491E884345
:1036B000099009990598081A0990032E08D10999CB
:1036C000039808440390099907980844079001E07B
:1036D00009980744DDE90301081AC11B0298081A7A
:1036E000B0FBF9F8022E03D140F6F670804505D301
:1036F000032E05D14FF6F670804501D20E20F3E679
:10370000032E02D10C200D9010E0012E06D104985A
:10371000B0F5803F02D201200D9007E00498B0F58B
:10372000803F01D2042000E006200D9000BF1198D8
:1037300010B1F0200E9043E06A89002105F13000BD
:1037400001F0D9F905F5F77401206070A070002030
:10375000E0700D982071FE206071049850443F2164
:10376000B0FBF1F0FF21B0FBF1F009903F21099887
:1037700041EA9000A0710998E0713F202072002179
:103780006172A172E172049820730498010A617356
:103790000498010CA1730498010EE173552185F87A
:1037A0002E12AA2185F82F120123002205F13001E3
:1037B0000C98FFF723FE08B1012095E6F8200E9043
:1037C00005F130046A890021204601F094F90B22AA
:1037D00049A1204601F082F9B5F80AB084F80BB08F
:1037E0004FEA1B21217384F80D900398A07303986E
:1037F000010AE17301202074032E01D1002001E0B1
:103800004FF40070834684F811B04FEA1B21A17475
:103810000498B0F5803F05D20498E0740498010A3A
:10382000217510E0049884F820000498C0F3072163
:10383000212001550498C0F3074122200155049826
:10384000010E232001550E9860753F20207600213F
:103850006176FF20A076E17684F81CA04FEA1A2159
:1038600061774FEA1A41A1774FEA1A61E17701F0D7
:10387000A1F80990032E4BD1099884F843000998C8
:10388000C0F30721442001550998C0F307414520A2
:1038900001550998010E4620015584F82470C7F39C
:1038A000072125200155C7F3074126200155390E70
:1038B00027200155022084F82C0000212D200155DD
:1038C0002E2001552F200155012084F83000312091
:1038D0000155062084F8320033200155802084F8F9
:1038E0004000292084F8420013220BE08C000020C5
:1038F000786600088E660008EBFE904D53444F53E7
:10390000352E30008AA104F1470001F0E7F81FE0EE
:10391000099884F827000998C0F307212820015549
:103920000998C0F30741292001550998010E2A2062
:103930000155A775390AE175802084F824002920F3
:1039400084F8260013227FA104F12B0001F0C6F8B1
:10395000552084F8FE01AA2140F2FF1001550123F1
:10396000524621460C98FFF749FD08B10120BBE5FE
:10397000032E06D101230AF1060221460C98FFF717
:103980003DFD079808904FF0000B5FE06A89002129
:10399000204601F0B0F80E980990032E14D0012EA5
:1039A00001D16D4801E06FF0FF00099908430990CB
:1039B000099820700998000A60700998000CA0709E
:1039C0000998000EE07019E0099860F0FF00099076
:1039D000099820700998000A60700998000CA0707E
:1039E0000998000EE070FF202071FF216171A17124
:1039F000E17120726172A1720F21E1720898411C7D
:103A000002460123089121460C98FFF7F7FC08B104
:103A1000012069E56A890021204601F06CF8012047
:103A200009900EE00898411C0246012308912146A6
:103A30000C98FFF7E3FC08B1012055E50998401CFC
:103A400009900998B842EDD30BF1010BBBF1000FBF
:103A50009CD0032E01D1484600E00298834600BF67
:103A60000898411C02460123089121460C98FFF753
:103A7000C5FC08B1012037E5ABF10100B0F1000B46
:103A8000EED1032E49D15220207060706120A070C9
:103A90004120E070722084F8E401722140F2E510C8
:103AA00001554121401C01556121401C0155A8F1DF
:103AB000010084F8E801C0F3072140F2E910015544
:103AC000A8F10100C0F307414FF4F5700155A8F1CA
:103AD0000100010E40F2EB100155022084F8EC01C8
:103AE000002140F2ED100155401C0155401C0155CC
:103AF000552084F8FE01AA2140F2FF100155012350
:103B00000AF1010221460C98FFF778FC01230AF123
:103B1000070221460C98FFF771FC002211460C9811
:103B2000FFF7CEFB08B10120DEE40020DCE400005A
:103B30004E4F204E414D45202020204641543332E7
:103B4000202020004E4F204E414D45202020204671
:103B5000415420202020200000FFFF00F7B582B054
:103B600016460398019001A800F028FF0546002D95
:103B700002DA0B2005B0F0BD0E4850F825400CB11C
:103B800000202070029810B10020029908700949A5
:103B9000029841F82500029808B1012E01D00020BA
:103BA000E8E7002203A902A800F078FB07463846A0
:103BB000E0E700008C0000202DE9F743ADF50C7D17
:103BC0000546164625B909200DF50F7DBDE8F083A1
:103BD0000020286006F01F0626F001028DA983A8A8
:103BE00000F05CFB0746002F74D180A88990CDF8C7
:103BF00028D283A88D9900F07DFD0746889C0FB9D7
:103C000004B9062706F01C0000285CD04FB1042F31
:103C100003D183A8FFF746FA074646F00806889CBA
:103C200009E0E07A00F0110008B1072703E006F090
:103C3000040000B10827002F55D106F00800002825
:103C400051D000F0B7FE804684F80E804FEA18216C
:103C5000E1734FEA184121744FEA1861617484F8E6
:103C600016804FEA1821E1754FEA184121764FEA94
:103C7000186161760020E072207700216177A177DA
:103C8000E1772146839800F0BEFE81460021204660
:103C900002F01CFC012083990871B9F1000F22D0B9
:103CA0008398D0F82C804946839801F00FF9074695
:103CB000CFB9A9F101008399C8604146839800F00B
:103CC00024FF07460FE077B9E07A00F0100010B14A
:103CD000042708E02DE006F0020020B1E07A00F0B1
:103CE000010000B1072747B906F0080008B146F007
:103CF00020068398C06AE8612C62D7B9AE710020B3
:103D0000E8712146839800F07EFE2861E07F01067D
:103D1000A07F41EA0041607F41EA0020217F084303
:103D2000E8600020A860A861839828602868C0889F
:103D3000A880384648E72DE9FF4F85B00446154670
:103D40009A46DDF818B00020CAF80000204602F0BC
:103D500073FC0490049818B1049809B0BDE8F08F82
:103D6000E07908B1E079F8E7A07900F0010008B93E
:103D70000720F2E7D4E90210401A02900298854227
:103D800000D9029DBAE021684989A068B0FBF1F230
:103D900001FB1200002877D121684989A068B0FB97
:103DA000F1F021688978491E084000F0FF09B9F157
:103DB000000F17D1A06810B92069039004E0616971
:103DC000206800F057FD03900398022802D20220D9
:103DD000E071C2E70398401C10B90120E071BCE714
:103DE0000398606161692068FEF71AFE064616B9FD
:103DF0000220E071B1E74E4420684089B5FBF0F83D
:103E0000B8F1000F2DD009EB0800216889788842AD
:103E100003D920688078A0EB0908216848784346D8
:103E200032465946FFF782FA10B10120E07194E75B
:103E3000A07900F0400078B1A069801B40450BD20A
:103E4000A169891B23685B8901FB03B021684A894A
:103E500004F1240100F042FE2068408900FB08F7CD
:103E600042E0A069B04220D0A07900F0400080B1CB
:103E700021684878012304F12401A269FFF7BEFA02
:103E800018B10120E07168E710E0A07920F040004F
:103E9000A071216848780123324604F12401FFF71C
:103EA00045FA10B10120E07157E7A6612168498900
:103EB000A068B0FBF1F201FB1200216849890F1ADA
:103EC000AF4200D92F4621684989A068B0FBF1F2C2
:103ED00001FB120104F1240008443A460146019016
:103EE000584600F0FBFD00BFBB44A0683844A0600A
:103EF000DAF800003844CAF80000ED1B002D7FF40A
:103F000042AF002029E72DE9F0410446204602F0A7
:103F100093FB0746002F4CD1A07900F02000002829
:103F200047D0A07900F0400078B12168487801239B
:103F300004F12401A269FFF761FA10B10120BDE884
:103F4000F081A07920F04000A071E169206800F0C4
:103F5000DCFD0746002F2CD1256AE87A40F02000CE
:103F6000E872207B2877A089010A6977E068010C54
:103F7000A977E068010EE9772846216902F0A6FAE0
:103F800000F018FD0646AE75310AE975310C297648
:103F9000310E69760020A8740021E974A07920F020
:103FA0002000A071012021680871206802F0A6FAA3
:103FB00007463846C3E72DE9FF4F83B00446154650
:103FC0009B46049801900020CBF80000204602F0A8
:103FD00033FB0290029818B1029807B0BDE8F08F49
:103FE000E07908B1E079F8E7A07900F0020008B9BB
:103FF0000720F2E7A0682844A168884200D2002583
:10400000CFE021684989A068B0FBF1F201FB120002
:1040100000287ED121684989A068B0FBF1F02168B1
:104020008978491E084000F0FF0ABAF1000F1ED13E
:10403000A06838B9276957B900212068FEF74EFDFE
:10404000074604E061692068FEF748FD074607B9A6
:10405000AAE0012F02D10220E071BEE7781C10B95E
:104060000120E071B9E76761206900B92761A07993
:1040700000F0400078B121684878012304F1240160
:10408000A269FFF7BBF910B10120E071A5E7A079A3
:1040900020F04000A07161692068FEF7C1FC06466F
:1040A00016B90220E07198E7564420684089B5FBB4
:1040B000F0F9B9F1000F31D00AEB090021688978D5
:1040C000884203D920688078A0EB0A0921684878E3
:1040D0004B4632460199FFF791F910B10120E0718A
:1040E0007BE7A069801B484511D2A069831B20682B
:1040F000B0F80AC0019803FB0C012068428904F162
:10410000240000F0EBFCA07920F04000A0712068B2
:1041100000E017E0408900FB09F835E0A069B042F3
:104120000FD0D4E9020188420BD2216848780123DC
:10413000324604F12401FFF7F9F810B10120E071D3
:104140004BE7A66121684989A068B0FBF1F201FB49
:10415000120021684989A1EB0008A84500D9A846AA
:1041600021684989A068B0FBF1F201FB120104F15A
:104170002400084442460090019900F0AFFCA07969
:1041800040F04000A07100BF019840440190A06839
:104190004044A060DBF800004044CBF80000A5EBF1
:1041A0000805002D7FF42DAF00BFD4E9020188423D
:1041B00001D9A068E060A07940F02000A071002043
:1041C0000BE700002DE9F04102460F46802A01DA94
:1041D00010462FE01FB1184B45F2205602E0174B56
:1041E00045F220560025102416E0A6EB050C0CEB3A
:1041F000DC7805EB68014FEA410C33F81CC09445AC
:1042000000D10BE04FEA410C33F81CC0944501DAB1
:104210000D4600E00E46641E002CE6D100BF34B10E
:104220004FF0010C0CEB410C33F81CC001E04FF0D7
:10423000000C6046BDE8F08128BB0108A4660008B8
:1042400030B5802807DA612823DB7A2821DCA0F149
:104250002005A8B21DE00C2200234FF4F77400BF24
:10426000E51A03EB55010B4D35F81150854200D18D
:104270000AE0084D35F81150854201DA0B4600E09E
:104280000C46551E2A1EEBD100BF12B1024D35F867
:10429000110030BDAC0F0308881303082DE9F74F58
:1042A0008AB000210A9801600B9800F087FB099002
:1042B0000998002803DA0B200DB0BDE8F08FE9491A
:1042C000099851F820400CB90C20F5E70A980460D1
:1042D000207878B16078FFF783F8814609F0010013
:1042E00040B90C9820B109F0040008B10A20E3E7B6
:1042F0000020E1E700202070099860706078FEF7E8
:10430000CAFF814609F0010008B10320D4E70C98E8
:1043100020B109F0040008B10A20CDE7607804F16B
:104320000A020221FEF7CCFF38B96089B0F5007FA0
:1043300003DB6089B0F5805F01DD0120BCE7002769
:1043400039462046FEF71AFB0546012D01D09DBBDC
:1043500032E000261AE004F5F77000EB061898F832
:10436000040070B198F80B00010698F80A0041EAC1
:10437000004198F8090041EA002098F80810084325
:1043800000E0002002A941F82600761C042EE2D3AA
:10439000002606B1761E00BF02A850F8267027B18D
:1043A00039462046FEF7EAFA00E0022005461DB134
:1043B000701C06460428EFD3032D01D101207BE7B2
:1043C0000DB10D2078E73B20015D94F83C0041EAF7
:1043D00000206189884201D00D206DE74620015DF3
:1043E00094F8470041EA002ABAF1000F0ED194F880
:1043F0005700010694F8560041EA004194F8550030
:1044000041EA002094F8541040EA010AC4F818A0C8
:104410004020005DE070E078012804D0E0780228B8
:1044200001D00D2048E7E0780AFB00FA3D20005D4E
:10443000A070A07818B1A078411E084008B10D20E6
:104440003AE74120015D94F8420041EA00202081D2
:104450006089C11700EBD1614911228992FBF1F308
:1044600001FB132109B10D2026E74320015D94F8DB
:10447000440041EA00200890089870B994F853006D
:10448000010694F8520041EA004194F8510041EAD3
:10449000002094F85010084308903E20015D94F8E5
:1044A0003F0041EA00200190019808B90D2003E780
:1044B0006089C11700EBD1614911228992FBF1F2A9
:1044C0000199514411440791DDE90710884201D256
:1044D0000D20F1E6DDE90710401AA178B0FBF1FBF1
:1044E000BBF1000F01D10D20E6E6012540F6F67084
:1044F000834500D302254FF6F670834500D303258C
:104500000BF102006061E76101983844206207986E
:104510003844A062032D16D1208908B10D20CBE6C6
:1045200094F85F00010694F85E0041EA004194F8B7
:104530005D0041EA002094F85C1008436062606905
:104540008000069014E0208908B90D20B4E6206AA6
:1045500050446062022D02D16069400007E0207D76
:1045600000F00100616901EB410100EB5100069090
:104570006089401E069908446189B0FBF1F0A16989
:10458000884201D90D2097E64FF0FF302061E060AE
:1045900080206071032D5AD194F8601094F8610066
:1045A00041EA0020012852D1791C204600F0ADFAE2
:1045B000E8BB0020607194F82E1294F82F0241EAB3
:1045C00000204AF65521884241D13320005D010682
:1045D0003220005D41EA00413120005D41EA0020C7
:1045E00094F8301008432049884230D194F81702DB
:1045F000010694F8160241EA004194F8150241EAD6
:10460000002094F814120843184988421FD194F8E6
:104610001B02010694F81A0241EA004194F81902BB
:1046200041EA002094F818120843206100E00EE0EF
:1046300094F81F02010694F81E0241EA004194F822
:104640001D0241EA002094F81C120843E060257026
:1046500007480088401C80B205490880E08000209F
:104660002AE600008C0000205252614172724161C2
:1046700094000020F0B504461D464D730F27CF72FD
:1046800000270F738F76BC4681F81BC0571E07EBBF
:10469000870C0CEBC706002738463B4600BF4FF699
:1046A000FF77B84203D03746761C34F81700DFF89E
:1046B00040C01CF803C001F80C000712DFF830C03E
:1046C0001CF803C08C448CF8017008B94FF6FF70D9
:1046D0005F1C3B460D2FE2D34FF6FF77B84202D066
:1046E00034F816700FB942F040020A70F0BD0000B5
:1046F0006A6600082DE9F3410446019800782F28E6
:1047000003D0019800785C2802D10198401C0190E8
:104710000020A06001980078202807D200212046C0
:10472000FEF755FD05460020606128E000BF01A9A5
:104730002046FEF73FFA054605B11FE02046FEF78A
:104740009FFB0546A069C67A3DB1042D04D100BF88
:1047500006F0040000B9052510E006F0040000B1E1
:104760000CE06769F87A00F0100008B9052505E04B
:104770003946206800F047F9A060D8E700BF284616
:10478000BDE8FC8170B504460D46E1B20548FDF771
:104790007BFF00BF80210348FDF7FEFE0028F9D013
:1047A000204670BD001001402DE9FF4F83B0074641
:1047B00091461E460B223846049900F08FF9052ECB
:1047C00019D9B04612E039F802BB00250CE0584672
:1047D00068F35F0080464FEA6B0B08F4803010B13D
:1047E000234888EA00086D1C102DF0D3B9F80000AA
:1047F0000028E8D14646072500BF06F00F0000F16B
:10480000300ABAF1390F03DD0AF1070000F0FF0AA0
:1048100028466D1E01A901F800A03609002EECD132
:104820007E20485500240BE0385D812807DB385D89
:10483000FE2804DC681EA04200D106E0641C641C53
:10484000AC4202D2385D2028EED100BF00BF082D57
:1048500004D228466D1C01A9095C00E020212046F5
:10486000641C3954082CF2D307B0BDE8F08F000067
:10487000211001002DE9F05F04460D46022D02D300
:104880006069A84202D84FF001098FE04FF0FF396C
:104890002078012804D002283CD003287ED157E09C
:1048A0002F4607EB57076089B7FBF0F0216A00EB52
:1048B000010A5146204600F028F900B175E038465B
:1048C0007F1C6189B0FBF1F201FB120104F13000A1
:1048D00010F801806089B7FBF0F0216A00EB010A53
:1048E0005146204600F011F900B15EE06089B7FB47
:1048F000F0F100FB117104F13000405C48EA00283F
:1049000005F0010010B14FEA181001E0C8F30B00E8
:1049100081464AE0B4F80AA00AEBDA704010B5FB11
:10492000F0F0216A00EB010B5946204600F0EDF84B
:1049300000B13AE068006189B0FBF1F201FB1201BD
:1049400004F130000E183078717840EA01292CE02B
:10495000B4F80AA04FEAEA700AEB90708010B5FB39
:10496000F0F0216A00EB010B5946204600F0CDF82B
:1049700000B11AE0A8006189B0FBF1F201FB12015D
:1049800004F130000E18F0780006B17840EA0140DA
:10499000717840EA01203178084300E002E020F01D
:1049A000704902E04FF0010900BF00BF4846BDE872
:1049B000F09F0000004870470000214670B5024695
:1049C0004FF0FF301568E5B1116800E0491C0D7823
:1049D000202D02D30D783A2DF8D10D783A2D0FD134
:1049E000146814F8015BA5F130030A2B07D28C423E
:1049F00005D1022B03D218464D1C2946156070BD07
:104A0000002000BFFBE710B502468C7ECB7E44EA57
:104A100003201378032B05D10C7D4B7D44EA03233F
:104A200040EA034010BD00001CB50EA000F0D8FC09
:104A3000142003214FF480630022CDE900101649B1
:104A400016A001F0B4F8174908600846006820B1C4
:104A50000846006801F0C8F902E04FF0FF301CBDC5
:104A60000020FCE7D5E2CAC7D2BBB8F65BD2B0BB28
:104A7000F05D2D53544D333246343239CCF4D5BD2C
:104A8000D5DF525454CEC4BCFECFB5CDB3CAB5D1D8
:104A9000E9A3A10A0A00000019660008746573748E
:104AA000000000002400002010B5044600F068FA61
:104AB000FFF7BAFF10BDF0B503461C460D460020B7
:104AC00000BF161EA2F1010207D014F8017B15F8F1
:104AD00001CBA7EB0C06301EF3D0F0BD70B503463A
:104AE0000C4603E014F8015B03F8015B151EA2F10C
:104AF0000102F7D170BD30B5034601E003F8011B98
:104B0000141EA2F10102F9D130BD70B504460D4664
:104B10000026E06AA84210D0204601F053FD064668
:104B20005EB9607801232A4604F13001FEF7FEFBEE
:104B300010B14FF0FF350126E562304670BD000030
:104B400030B51A4C436824681919884215D04B882F
:104B50009BB9174B1B6899420FD0164B1B688B42B1
:104B600001D1144B18604B684360104B1B68C31A8B
:104B70000E4D4C682D682C44A3600C4C836824684F
:104B80001A19824211D053887BB90A4B1B688342A1
:104B900001D1084B1A6043685360044B1B68D31A59
:104BA000024D44682D682C44A36030BDA000002055
:104BB000A4000020A80000202DE9F04F85B00D468C
:104BC0009C46DDE90F740E9B04F04008B8F1000F1D
:104BD00002D0DFF8688101E0DFF86481CDF8008061
:104BE00004F01008B8F1000F01D024F0010404F023
:104BF0000108B8F1000F02D04FF0300801E04FF08B
:104C00002008C246002604F00208B8F1000F11D0B7
:104C1000002A02DA2D2652420CE004F00408B8F112
:104C2000000F01D02B2605E004F00808B8F1000FB2
:104C300000D02026002142B94FF0300B8846491C95
:104C40000DF1040909F808B01DE01AE0E146B9F1D8
:104C50000A0F08D14FF00A0BB2FBFBFE0BFB1E281C
:104C6000B2FBFBF202E002F00F08120900BFDDF810
:104C7000009019F808B08846491C0DF1040909F89C
:104C800008B0002AE2D1B94200DD0F46DB1B04F078
:104C90001108B8F1000F10D116B1002B00DD5B1E1A
:104CA00006E0A84203D84FF0200880F80080401C9E
:104CB000B3F10008A3F10103F3DC26B1A84201D847
:104CC00006705B1E401C04F01008B8F1000F0AD1FA
:104CD00004E0A84201D880F800A0401CB3F100080D
:104CE000A3F10103F5DC06E0A84203D84FF0300839
:104CF00080F80080401CB8467F1E8845F4DC08E040
:104D0000A84205D80DF1040818F8018080F8008049
:104D1000401CB1F10008A1F10101F1DC06E0A8425C
:104D200003D84FF0200880F80080401CB3F1000841
:104D3000A3F10103F3DC05B0BDE8F08F751803089B
:104D4000641803082DE9F05F04460E461746022E4C
:104D500002D36069B04202D84FF00208B3E0207875
:104D6000012804D0022852D0032872D172E0B14643
:104D700009EB59096089B9FBF0F0216A00EB010ADF
:104D800051462046FFF7C1FE8046B8F1000F00D023
:104D900098E0484609F101096189B0FBF1F201FB95
:104DA000120104F130000D1806F0010020B1F9B233
:104DB000287861F31F1000E0384628700120207128
:104DC0006089B9FBF0F0216A00EB010A51462046E8
:104DD000FFF79BFE8046B8F1000F00D072E06089BB
:104DE000B9FBF0F100FB119104F130000D1806F051
:104DF000010010B1C7F3071005E0287800F0F000BB
:104E0000C7F3032108432870012020715AE0B4F849
:104E10000AA00AEBDA704010B6FBF0F0216A00EB52
:104E2000010B59462046FFF770FE8046B8F1000F8F
:104E300000D047E070006189B0FBF1F201FB120184
:104E400004F130000D182F70380A687001202071AD
:104E500038E034E0B4F80AA04FEAEA700AEB907048
:104E60008010B6FBF0F0216A00EB010B594620469A
:104E7000FFF74BFE8046B8F1000F00D022E0B000F3
:104E80006189B0FBF1F201FB120104F130000D1851
:104E9000E8780006A97840EA0140697840EA0120F4
:104EA0002978084300F0704007432F70380A687073
:104EB000380CA870380EE8700120207102E04FF025
:104EC000020800BF00BF4046BDE8F09F2DE9F04159
:104ED00004460E46022E02D36069B04201D8022772
:104EE00027E0002721E031462046FFF7C3FC0546B6
:104EF00005B91DE0012D01D1022719E0681C08B990
:104F0000012715E0002231462046FFF71BFF074628
:104F100007B10DE02069401C30B12069401C2061C0
:104F2000607940F0010060712E466069B042DAD8C5
:104F300000BF3846BDE8F0811CB5142002210B02E9
:104F40000022CDE90010044904A000F030FE044620
:104F5000204600F049FF1CBDA94A00086D61696E3A
:104F60000000000010B5044C02E020688047241DBA
:104F700002488442F9D310BD8C1803089018030826
:104F800010B5044C02E020688047241D024884428A
:104F9000F9D310BD901803089418030810B5FBF757
:104FA00021F9044604480088401C00B202490880E8
:104FB0002046FBF71BF910BD3801002010B5FBF7A8
:104FC00011F904460B480088401E00B209490880C8
:104FD0000846B0F90000002807DC002008802046C1
:104FE000FBF704F900F09AFB02E02046FBF7FEF81D
:104FF00010BD00003801002070B5054605B970BD30
:105000001D480068854203D31C480068854200D3D0
:10501000F5E7A5F10C044FF0FF31194800F048FC0A
:10502000608818B12088B0F5F55F08D015A000F0B1
:10503000D7F923886288214619A000F0D1F9002011
:1050400060804FF4F550208021480068844201D2EE
:105050001F480460084960680968611A401A1D49C0
:105060000968081A1B4908602046FFF769FD0448D3
:1050700000F001FC00BFC2E7A0000020A400002057
:1050800090C80020746F206672656520612062619F
:1050900064206461746120626C6F636B3A0A000083
:1050A0006D656D3A203078253038782C2075736521
:1050B0006420666C61673A2025642C206D61676905
:1050C0006320636F64653A203078253034780A00B5
:1050D000A8000020B0000020004870479026002063
:1050E0000048704790C6002070B51C4800684FF417
:1050F0007A72B0FBF2F1481EB0F1807F00D31BE062
:10510000481E4FF0E022506150170F22002807DAA6
:1051100013071D0E124B00F00F04241F1D5503E052
:1051200013071C0E0F4B1C5400BF00204FF0E02251
:1051300090610720106100BFFBF7BAFFFBF732FC5C
:10514000FBF77CFCFFF70EFFFFF7CAFF0446FFF7F3
:10515000C3FF0546214600F061FC70BD0000002041
:1051600018ED00E000E400E010B50446FFF716FF7C
:1051700019E020780A280AD10D210E48FDF784FA9B
:1051800000BF80210B48FDF707FA0028F9D014F87A
:10519000011B0848FDF778FA00BF80210548FDF79C
:1051A000FBF90028F9D020780028E2D1FFF706FFAC
:1051B00010BD00000010014070B504461948006899
:1051C00038B12046174909688847054605B970BDBA
:1051D00000BF15A0E16900F003F917A0A16900F074
:1051E000FFF819A0616900F0FBF81BA0216900F02D
:1051F000F7F81DA0E16800F0F3F81FA0A16800F027
:10520000EFF821A0616800F0EBF823A0216800F01E
:10521000E7F800F0C1FD0546294623A000F0E0F8BC
:1052200000BFFEE7680100207073723A20307825D5
:105230003038780A000000002070633A203078256A
:105240003038780A00000000206C723A203078254F
:105250003038780A000000007231323A2030782568
:105260003038780A000000007230333A2030782558
:105270003038780A000000007230323A2030782549
:105280003038780A000000007230313A203078253A
:105290003038780A000000007230303A203078252B
:1052A0003038780A00000000686172642066617519
:1052B0006C74206F6E207468726561643A20257387
:1052C0000A000000F0B504460D461646301D20F0D9
:1052D000070040380146002203E00C4F41F82270DD
:1052E000521C102AF9D30D624FF0000CC1F824C0F3
:1052F000C1F828C0C1F82CC0C1F830C04B638C6322
:105300004FF0807CC1F83CC0F0BD0000EFBEADDEC8
:1053100010B5FAF767FF044604480078401C0349BB
:1053200008702046FAF762FF10BD00009C000020C4
:1053300010B5FAF757FF044604480078401E0349A9
:1053400008702046FAF752FF10BD00009C000020B4
:1053500070B504462068A0F11405284600F0FEFC54
:10536000002070BD2DE9F04105460C4690462046D0
:1053700000F050FDB8F1000F03D0B8F1010F23D1B8
:1053800005E004F11401284600F060F81CE02E68E6
:105390000FE0A6F1140794F8350097F8351088420D
:1053A00006DA04F1140107F1140000F04FF802E0EE
:1053B0003668AE42EDD100BFAE4204D104F1140113
:1053C000284600F043F800BF00BF0020BDE8F08190
:1053D00010B5044604F1140000F01AF8002010BDC6
:1053E0000FB438B505A800907F210848009B049AA7
:1053F00000F0A8FE04467F2C00D97F240348FFF765
:10540000B3FE0020009038BC5DF814FB10C80020EB
:10541000406000607047406000607047406000601E
:1054200070470268516002680A6001604860704716
:105430000268516002680A60016048607047026853
:10544000516002680A6001604860704742681160FC
:1054500042684A60416008607047014608688842B7
:1054600001D1012070470020FCE70146086888420E
:1054700001D1012070470020FCE7D0E900215160F4
:10548000D0E900121160406000607047D0E900214F
:105490005160D0E900121160406000607047000068
:1054A0002DE9F041054615B90020BDE8F081E81C62
:1054B00020F003054E480068854201D90020F4E73A
:1054C0000C2D00D20C254FF0FF314A4800F0F0F9C6
:1054D0004948006849490968461A7EE0474800681B
:1054E00084196088002874D106F10C006168081ADC
:1054F000A8426ED306F10C006168091A05F1180084
:10550000814230D306F10C0000EB05083B480068EF
:1055100000EB08074FF4F550388000207880606871
:105520007860BE60C4F804800120608030487968EB
:1055300000680C30814205D0304978680968084419
:10554000C0F808802E48016805F10C0008442C4979
:1055500008602C4800680968884219D22848006809
:105560002849086014E001206080244960680968C7
:10557000611A401A224909680844214908602148F3
:1055800000680968884203D21D4800681D49086008
:105590004FF4F550208018480068844212D107E08B
:1055A00015480068406815490968084412490860B0
:1055B00011480068408828B10F48006812490968FE
:1055C0008842EDD10B4800F056F904F10C006CE76D
:1055D000FFE70A4800683044466805480068401BF9
:1055E000B0423FF67BAF034800F045F900205CE78E
:1055F000AC00002090C80020A8000020A0000020DF
:10560000B0000020B4000020A400002030B5034604
:1056100001E003F8011B141EA2F10102F9D130BD13
:105620002DE9F04105460F46284600F03BF80646B6
:10563000F068FFF735FF044614B90020BDE8F0819B
:1056400025720020607208223946204600F0CBF90E
:10565000FAF7C8FD804604F10C01301DFFF7E1FEAA
:105660004046FAF7C3FD2046E8E770B50446FAF76E
:10567000B9FD054604F10C00FFF7FFFE2846FAF7D6
:10568000B5FD2046FFF7B8FC70BD70B50446FAF7CB
:10569000A9FD054604F10C00FFF7EFFE2846FAF7D6
:1056A000A5FD70BD024600210AE0074800EB01108D
:1056B0000078904203D1044800EB01107047491C68
:1056C0000829F2DB0020F9E7B80000202DE9F041BD
:1056D00004460D4616462846FFF7E4FF074645F008
:1056E0008000207208223146204600F07CF9FAF74B
:1056F00079FD804604F10C01381DFFF792FE40460B
:10570000FAF774FDBDE8F0810146087A00F08000E8
:1057100008B1012070470020FCE700002DE9F041AE
:10572000FAF760FD07461B48008868BB1A48006806
:10573000FCF7C0FF461E194850F83600A0F11404CB
:105740001748006884421BD016490E70144805683B
:1057500004601548007848B904F11C0105F11C00EB
:10576000FAF747FD3846FAF741FD0CE004F11C0159
:1057700005F11C00FAF73DFD3846FAF737FD02E067
:105780003846FAF733FD02E03846FAF72FFDBDE858
:10579000F08100003801002044010020B0C8002042
:1057A0003C010020400100209C00002070B5044610
:1057B000FAF718FD054614F8340F20F00F0040F0FA
:1057C000010020706278343C0A4B03EBC20004F104
:1057D00014014268116042684A604160086000BF7D
:1057E0000549A06B09680843034908602846FAF791
:1057F000FDFC70BDB0C800204401002070B5044617
:10580000FAF7F0FC054604F11400D0E900215160DC
:10581000D0E9001211604060006000BF94F83510BC
:10582000094A02EBC1000168814201D1012100E077
:10583000002129B10548A16B00688843034908602D
:105840002846FAF7D3FC70BDB0C800204401002000
:105850002DE9F04104460D4616461F462A46012111
:105860002046FFF733FF2046FFF7B2FDA68367729D
:105870000020BDE8F08170B504460025FAF7B2FCBF
:10588000064604F11400FFF7E8FD28B904F11400FE
:10589000FFF75EFD012502E0A08B401CA08330468F
:1058A000FAF7A4FC012D01D1FFF738FF002070BDED
:1058B00073B50546FAF796FC0646A88B002806DD68
:1058C000A88B401EA8833046FAF790FC28E0019888
:1058D00028B93046FAF78AFC6FF001007CBD00F071
:1058E0005BFA0446002020636A7A214605F1140021
:1058F000FFF738FD0198002809DD01AA002104F115
:105900004C0000F047FB04F14C0000F087FB3046F0
:10591000FAF76CFCFFF702FF206B08B1206BDDE7A4
:105920000020DBE708B509A0FFF75AFD0AA0FFF742
:1059300057FD12A0032300221946009012A0FFF782
:105940004FFD19A0FFF74CFD08BD00000A205C20A8
:105950007C202F0A000000002D205254202D2020F2
:10596000202020546872656164204F7065726174F4
:10597000696E672053797374656D0A0041756720FD
:105980003138203230313800202F207C205C20201C
:1059900020202025642E25642E2564206275696CE4
:1059A000642025730A0000002032303036202D207C
:1059B0003230313820436F707972696768742062C1
:1059C000792072742D746872656164207465616DEC
:1059D0000A00000001460A4600E0521C1078002828
:1059E000FBD1501A704770B50346A2B118460C4659
:1059F00000BF14F8016B00F8016B3EB902E000250E
:105A000000F8015B551E2A1EF9D102E0551E2A1E20
:105A1000EFD100BF00BF184670BD00002DE9F04176
:105A200005460E46E81C20F0030726F00308B8F1EF
:105A3000180F09D9A8F11800B84205D3A8EB070040
:105A400018381E49086006E0324629461CA0FFF7B8
:105A5000C7FCBDE8F0812948076004684FF4F550A1
:105A60002080164800680C3060600020A0606080D4
:105A70002249606809680844214908604FF4F550DC
:105A80000968088001201E49096848800B480068A1
:105A90000C301B4909684860084800680C301849F8
:105AA000096888600023012216A11848FFF7D0FE7C
:105AB000124800681649086000BFCAE7AC00002021
:105AC0006D656D20696E69742C206572726F72202D
:105AD000626567696E2061646472657373203078F3
